:0E0000000C940D010C945E030C9400000C9403
:10000E0000000C9400000C9400000C9400000C9462
:10001E0000000C9400000C9400000C9400000C9452
:10002E0000000C9400000C9400000C9400000C9442
:10003E0000000C9400000C9400000C9400000C9432
:10004E0000000C9400001027E80364000A00010071
:10005E00001000011000010000000000000001006F
:10006E000000000000000000000000000000000082
:10007E00040000000000000000000000000000006E
:10008E00000500000000000000000000000000005D
:10009E00000007000000000000000000000000004B
:1000AE00000000000300000000000000000000003F
:1000BE00000000000004000000000000000000002E
:1000CE00000000000000050000000000000000001D
:1000DE000000000000000002000000000000000010
:1000EE0000000000000000000600000000000000FC
:1000FE0000000000000000000002000000000000F0
:10010E0000000000000000000000070000000000DA
:10011E0000000000000000000000000700000000CA
:10012E000000000000000000000000000900253063
:10013E0032752F253032752F25303275202D204403
:10014E00617920257500253032753A253032753AA1
:10015E002530327500257300456E746572204E652C
:10016E007720506173733A004E6577205061737338
:10017E002069733A0070617373206368656E6765FA
:10018E00640025640044505379732E636F005061F0
:10019E007373204B6579203A004C6F636B203A20C5
:1001AE004F4E00496E76616C6964205061737377AF
:1001BE006F72640048414C4C4F0080C0060008002E
:1001CE0066000100BA016C003300FC016E0099005C
:1001DE002F02A2001000600166010D007001760171
:1001EE000D007D01830109008A0193010B0093012B
:1001FE009C0109009E0193010B00A7019C010600C2
:10020E00B201C2010200CF02C8010000F894EE272D
:10021E00ECBBF1E0FBBFEBBFE5BF8DE0A2E0BB277F
:10022E00ED938A95E9F780E094E0A0E6ED930197CF
:10023E00E9F7EAECF1E085919591009761F0A591CF
:10024E00B59105901590BF01F00105900D920197A3
:10025E00E1F7FB01F0CFEFE5EDBFE4E0EEBFC0E666
:10026E00D1E00C948A03E0EFEABBEFE0EBBBE0E0F9
:10027E00E7BBE8BBE1E0E4BBE0E0E5BBE1BBE2BB32
:10028E00E3BFE2BFECBFEFBDEEBDEDBDECBDE7BD24
:10029E00E6BDEBBDEABDE9BDE8BDE2BDE5BDE4BD31
:1002AE00E3BDE9BFEBB7E064EBBFE1E0E5BFE0E043
:1002BE00E4BFE0E4EABFE0E0EAB9E0E8E8B9E0E094
:1002CE00E0BFE6B9EDB9E6BF0E94FC08A0E10E94CE
:1002DE008A0578940895AA931A930E940109AD8114
:1002EE000E943509AC810E943509E981E150E9830C
:1002FE00EF5F49F0AA81BB811D91AA83BB83A12F19
:10030E000E943509F2CF10E0A12F0E94E407188158
:10031E0026960895AA930E940109AC810E94350980
:10032E00AB810E9435090E940109EC81E160AE2F7C
:10033E000E943509E881E150E88359F00E94E807F0
:10034E00FF93EF93A1E00E941A09AF91BF91EC9336
:10035E00F1CF0E94E807FF93EF93A0E00E941A09E5
:10036E00AF91BF91EC93A981BA81E0E0EC930E942A
:10037E0010090C94F6051A930A931FEFEFEFEBBBDF
:10038E00DC980E94EF07B1F00E94F40711F411E01F
:10039E0011C0ED30A0E0FA0711F412E00BC0EB3003
:1003AE00A0E0FA0711F413E005C0E730A0E0FA0769
:1003BE0009F41CE0DC9ADD980E94EF07B1F00E9470
:1003CE00F40711F414E011C0ED30A0E0FA0711F4B7
:1003DE0015E00BC0EB30A0E0FA0711F416E005C0F3
:1003EE00E730A0E0FA0709F41DE0DD9ADE980E94DE
:1003FE00EF07B1F00E94F40711F417E011C0ED30D1
:10040E00A0E0FA0711F418E00BC0EB30A0E0FA07F9
:10041E0011F419E005C0E730A0E0FA0709F41EE078
:10042E00DE9ADF980E94EF07B1F00E94F40711F4F4
:10043E001AE011C0ED30A0E0FA0711F410E00BC085
:10044E00EB30A0E0FA0711F41BE005C0E730A0E0A6
:10045E00FA0709F41FE0DF9AEFE0EBBBE12F6AC069
:10046E001A930A9300E010E000E010E00630E0E09E
:10047E001E070CF05FC0E8ECF2E0FA93EA93EBECA7
:10048E00F2E0FA93EA93EAECF2E0FA93EA93A9EC3B
:10049E00B2E00E94BE07ECEDF1E0FA93EA93ECE3D2
:1004AE00F1E0FA93EA93E091CA020E94FA07E09112
:1004BE00CB020E94FA07E091C9020E94FA07E0916E
:1004CE00C8020E94FA0780E10E942C0764960E94DF
:1004DE000008A1E00E940508ECECF2E0FA93EA9322
:1004EE00EDECF2E0FA93EA93AEECB2E00E94A707CD
:1004FE00ECEDF1E0FA93EA93E4E5F1E0FA93EA9396
:10050E00E091CC020E94FA07E091CD020E94FA0718
:10051E00E091CE020E94FA078CE00E942C076096B2
:10052E00E0E0EA93A0E00E9405080E940B080F5F2E
:10053E001F4F9CCF099119910895BA93AA93EC81FC
:10054E00FD81309729F40E9400080E940F0820C0F8
:10055E00E130A0E0FA07F1F40E9400080E940F08B3
:10056E000E942C08ECEBF1E00E943308AE81BF81B3
:10057E00E3E30E947309E15DFD4FDF01EC81FD8134
:10058E000E943A08E60FF71F0E944008ACEBB1E05C
:10059E000E946C050C94BC070E94990900E010E0C3
:1005AE0020E030E0EBB7EBBF0E940008A0E00E9415
:1005BE002D05A0E6B1E00E942C08002E012A09F0BC
:1005CE006FC0D9DE5E2FA8ECB0E00E944D095F3FF0
:1005DE0009F465C0E52F0E94490809F460C0EB30AC
:1005EE00A0E0FA0711F50E940008A0E00E942D0578
:1005FE00A0E7B1E00E942C08A7EFB1E00E946C05C5
:10060E000E940B080E944E08E7EFF1E0FA93EA937E
:10061E00A5E061DE0E945A080E943E05ADE7B1E0FA
:10062E000E945E0801E010E03AC0EC30A0E0FA074C
:10063E00B1F1ED30A0E0FA0791F1EE30A0E0FA074B
:10064E0071F1EF30A0E0FA0751F12430E0E03E07FF
:10065E00E4F40E946408D901A950BE4FE52FE05D75
:10066E00EC930E946B08E0E9F1E0FA93EA93E52F30
:10067E000E94FA0784E00E942C072896ACECB1E0A9
:10068E000E946C052F5F3F4F0AC0E3E0F0E0E217D7
:10069E00F30729F4F901E850FE4FA0E0A0838DCFB7
:1006AE00EBB7E064EBBF0E94A0090C94BC070A9262
:1006BE001A92FA926A937A938A939A93AA93BA9316
:1006CE00EA93FA93EFB7EA931A93A8ECB0E00E947C
:1006DE004D0951DE1E2F1F3F21F00E946408A12FED
:1006EE0082D0EBB7E064EBBF1991E991EFBFF991BE
:1006FE00E991B991A9919991899179916991F9901D
:10070E00199009901895AFDD0E944E080E946B0853
:10071E00A4E00E9470080E947308ECEEF1E0FA93D8
:10072E00EA93ACECB1E00E94740744245524E3E054
:10073E00F0E04E165F06F8F40E947D08F201A1E18A
:10074E00B0E00E946B09E45FFD4FA0810E9470082B
:10075E000E947308F201A1E1B0E00E946B09E4501F
:10076E00FE4F0E943308ECECF1E00E944008F201CB
:10077E0031962F01DCCF44245524E3E0F0E04E16F1
:10078E005F0630F566247724E3E0F0E06E167F0610
:10079E00D8F40E947D080E948308DB01AE0FBF1FB4
:1007AE005096AC910E9470080E9473080E948308B4
:1007BE00E60FF71F0E943308ECECF1E00E944008B0
:1007CE00F30131963F01E0CFF20131962F01D5CFE3
:1007DE000E948D08AAE8B1E00E942C08A3E9B1E0BE
:1007EE0074D1FFCFFFCFAA93E091B801F091B90178
:1007FE00309709F064C0E8810E94490871F40E94A4
:10080E0094080E9499080E948D08AEE9B1E00E94FA
:10081E002C08A7EAB1E059D151C0EB30A0E0FA079D
:10082E00E1F5E091F601F0E0EF50FE4FA0E0A0837D
:10083E000E949408ACEEB1E00E946007E03001F532
:10084E0016D1E3E0EA93A0E001D1A7EAB1E04CD1E2
:10085E000E940B080E940008A0E0F8D0ECECF1E03A
:10086E000E943308ECEFF1E00E944008ACECB1E0DE
:10087E002CD1E1E0F0E0E093B801F093B90108C0AB
:10088E00F6D0A1EBB1E030D1A0EDB7E00E944D095A
:10089E000E9494080E94990811C0A091F601A430FC
:1008AE0068F4B0E0AF50BE4FE881E05DEC93E091AC
:1008BE00F601EF5FE093F601AAE2E7D0A6C0082C9E
:1008CE00092809F045C0E8810E94490809F43FC093
:1008DE00EB30A0E0FA0721F4F40131964F0137C056
:1008EE00EC30A0E0FA0711F4BBDD31C0ED30A0E032
:1008FE00FA0769F1EE30A0E0FA0799F4D501E2E0CB
:10090E00F0E00E945F090E2EE0E0F0E00E94650923
:10091E00E02919F0F501319702C0E2E0F0E05F0145
:10092E0016C0EF30A0E0FA0791F4D501E0E0F0E058
:10093E000E945F090E2EE2E0F0E00E946509E029B8
:10094E0021F0F50131965F0102C0AA24BB2457C0E5
:10095E00E8810E94490821F4F40131974F014DC0FE
:10096E00EB30A0E0FA07F1F4F501AAE0B0E00E9446
:10097E007909EC0DFD1D309729F4A2EBB1E00E9430
:10098E005E080FC0E130A0E0FA0759F0E431A0E0B4
:10099E00FA0711F401DE05C0E631A0E0FA0709F40A
:1009AE005FDD2DC0EE30A0E0FA0799F4D601E2E04B
:1009BE00F0E00E945F090E2EE0E0F0E00E94650973
:1009CE00E02919F0F601319702C0E2E0F0E06F0184
:1009DE0016C0EF30A0E0FA0791F4D601E0E0F0E0A7
:1009EE000E945F090E2EE2E0F0E00E946509E02908
:1009FE0021F0F60131966F0102C0CC24DD249A92CB
:100A0E008A92BA92AA92D60198DDA9C0AA93E8B3A7
:100A1E00EF70AE2FE881E07FEA2BE8BB82E08A958B
:100A2E00F1F7C29A82E08A95F1F7C29882E08A9530
:100A3E00F1F795C0AA93A881E9DFE881E295E883F2
:100A4E00A881E4DF81E18A95F1F789C0AA93E88154
:100A5E00F0E0E153FD4FE081A981AE0FEBDFE981BC
:100A6E00E093D302E881E093D40222960895A2E0A7
:100A7E000E94A108ACE0DEDFA1E00E94A108E0E048
:100A8E00E093D402E093D3020895AA93A881AA30EA
:100A9E0031F0E091D502A091D302AE1760F0E0E004
:100AAE00EA93A091D402AF5FA093D402CFDFA881C6
:100ABE00AA3009F454C0E091D302EF5FE093D30261
:100ACE00C09AA881B7DFC0984AC0BA93AA931A9366
:100ADE00A981BA81ED91A983BA831E2FE03019F056
:100AEE00A12FD3DFF5CF0CC0BA93AA931A930E940D
:100AFE00E807E4911E2FE03019F0A12FC6DFF7CFE3
:100B0E00188123960895AA93E7B3E06FE7BBBA9ACC
:100B1E00B89AB99AC298C098C198E881E093D50264
:100B2E00E058E093D102E881E054E093D202A4E1D0
:100B3E00B0E00E944D090E94A7080E94A7080E94DB
:100B4E00A708A0E263DF81E28A95F1F7A8E272DFDF
:100B5E00A4E070DFA5E86EDFA6E06CDF88DF2196EB
:100B6E000895BA93AA931A930A93AA81BB811296F7
:100B7E000E948C09309759F1AA81BB8114960E946C
:100B8E008C098F01309761F00230E0E01E0798F07B
:100B9E00F80131978F01AA81BB811496ED93FC93D6
:100BAE00AA81BB811296ED91FD913196FE93EE9343
:100BBE003197AC81A083AA81BB810E948C09FF234F
:100BCE002AF0ED91FD913196FE93EE9306C0AA8127
:100BDE00BB81EFEFFFEFED93FC9319810881259612
:100BEE000895BA93AA9326970E94990910E0AC85AE
:100BFE00BD85E0E0F0E0ED93FC93EA89FB89319648
:100C0E00EA8BFB8B3197E4912E2FE03009F415C15E
:100C1E00E12FE03039F4253211F411E002C00E94C8
:100C2E00AE080AC1E130A9F4253219F40E94AE08CB
:100C3E0002C112E040E000E02D3211F401E0FCC0F0
:100C4E002B3211F44BE2F8C0203211F440E2F4C022
:100C5E0002C0E23039F450E013E0203311F40068A2
:100C6E00EBC003C0E33009F0E7C0203310F02A33A5
:100C7E0008F007C0AAE05A9F502DE22FE0535E0FF6
:100C8E00DBC0E22FE33649F40E94B508E889F98902
:100C9E00A481AA930E94BB08CEC0E33741F40E9400
:100CAE00B5080E94C1080E948E071E2F0AC0E037A9
:100CBE0061F40E94B5080E94C1080E949A071E2F77
:100CCE00086002600F7730E034C0E43611F0E93688
:100CDE0011F4046002C0E53731F4E4E5F0E0EE8390
:100CEE00FF8315E00CC0E83511F4086003C0E83747
:100CFE0009F0A1C0EEE5F0E0EE83FF8314E002FF01
:100D0E0014C00E94B5080E94CB08AB85AA233AF402
:100D1E00EA85FB850E945B09EA87FB874DE240303E
:100D2E0011F01F5F01C00B7F04C00E94B5080E9426
:100D3E00CB0800FD11C0151778F407FF08C002FF9D
:100D4E0004C00B7F242F115001C020E301C020E20C
:100D5E000E94AE085150EFCF312F01FF17C0303037
:100D6E00A1F003FF06C0EE81FF812591EE83FF8384
:100D7E0005C0AE81BF812D91AE83BF830E94AE08A8
:100D8E00503009F051503150EACF4BC020E3EE8184
:100D9E00FF810E949009E887F987EE81FF813296E4
:100DAE00EE83FF83E885F985AA85BB85AE17BF075D
:100DBE0050F02F5FA885B985EA85FB85EA1BFB0BF2
:100DCE00EA87FB87EFCF2A3328F003FF02C0295FA3
:100DDE0001C0295D04FD1AC0213320F4A885B98510
:100DEE00119709F409C0531710F000FF01C013C08A
:100DFE0020E207FF0BC020E3006102FF07C00B7F5C
:100E0E004A930E94BB08503009F051500E94AE0820
:100E1E00503009F051503150A885B985129708F01D
:100E2E00B5CF00FF08C0503031F05150E0E2EA93E8
:100E3E000E94BB08F8CF10E0E0CEAC85BD850E94C5
:100E4E008C090E94A00964960895FF92F82E2697A9
:100E5E000E949B090E94D308309719F4EFEFFFEF21
:100E6E0023C0DE0116960E9457098D010E94D308F9
:100E7E00EE83FF83E0E0E887E987DE011A960E94A1
:100E8E0057090E948C09FA93EA931A930A93E8EB96
:100E9E00F5E0FA93EA93DE011A96A3DE9F01AE8186
:100EAE00BF81E0E0EC93F9010E94A2092A96FF901F
:100EBE000895BA93AA93E991F991A991B9916D9177
:100ECE007191671721F46623D1F7EE270895671BFA
:100EDE00E1F3E1E008F4E2500895BA93AA93E991A0
:100EEE00F991A991B991CD0161916D936623E1F7C5
:100EFE00FC010895BA93AA93E991F991A991B99138
:100F0E00CD0105900D920020E1F7FC010895BA93F2
:100F1E00AA93A991B991EE27FF276D91662311F03F
:100F2E003196FBCF0895BA93AA93AA27BB27E991CE
:100F3E00F9910590002011F01196FBCFFD01089557
:100F4E000E94DA08A0E00E94E4070E94E1080E94D5
:100F5E00E9080E94F0080E94F608AE2F0E94D707FB
:100F6E00AC81BD81EC930E941009269608950E94D3
:100F7E00DA08A3E00E94E4070E94E108AE81BF8177
:100F8E00EC930E94F008AC81BD81EC930E94F008B6
:100F9E000E94F6080E94E9080E94100928960895FA
:100FAE00AA93E881E295EF70AE2FAA0FAA0FEA0F6F
:100FBE00EE0FA991AF70EA0F08950E9435090C94B7
:100FCE001009E981FA813196E983FA833197089500
:100FDE00E9B3EF700E2F0F300895E02FF0E0EE30F2
:100FEE00A0E0FA070895FF27662777270E94940945
:100FFE0008950E943E05E0E0EA9308950E942D05B3
:10100E00ACEDB1E00C946C05A8EEB3E00C944D0978
:10101E00A0E00E942D05ECECF1E0FA93EA93E3E6F2
:10102E00F1E0FA93EA93AE81BF81E1E10E94730988
:10103E00E450FE4F662777270E94940984E00E94B1
:10104E002C072896ACECB1E008950E946C05E0E008
:10105E00EA93A1E00C942D05FA93EA93E3E6F1E00E
:10106E00FA93EA930895BD01A1E1B0E00E946B09E5
:10107E000895662777270E94940984E00E942C0722
:10108E0028960895F0E0EA30A0E0FA070895E1E02E
:10109E00F0E0E093BA01F093BB01E0EAEA93E0914D
:1010AE00BA01EA930895AAE0B0E00C944D090E94AB
:1010BE006C05A4EFB1E00C944D09A89AA2E3B0E040
:1010CE000E944D09A8980895ECECF1E0FA93EA938A
:1010DE0008950E949101E7CFE091BA01F091BB0112
:1010EE007096E093BA01F093BB010895E0EAEA939B
:1010FE00E091BA01EA93E8CFF201A3E3B0E00E94D7
:10110E006B09E15DFD4FDF01F301ADCF0E943E059E
:10111E00E4E0EA93A0E00C942D05E1EFF1E0FA9300
:10112E00EA930895A3E5B1E00E948107E0E0E09321
:10113E00F60108950E942105A3E0B0E00C944D093C
:10114E00A0E30E940D0581E28A95F1F708952A9396
:10115E00AD85BE85EF85F88909950895E889F989E9
:10116E003497E88BF98B0895AD85BE85EF85F889A8
:10117E0009950895A889B98914960E948C09EE8361
:10118E00FF83AE81BF810895A889B98914960E9404
:10119E008C09EA87FB870895DE011C960E94570989
:1011AE000E948C090895BA93AA930E940109A0ED9A
:1011BE000C9435090E940109A1ED0E943509A1E0A8
:1011CE000C941A09AE2F0E94D707A881B981EC930F
:1011DE000895A1E00E941A09AE2F0C94D707AA8198
:1011EE00BB81EC93A0E00C941A0990989198889A80
:1011FE00899815C089988898EE270000819B0895DC
:10120E00809B089504D0899A02D0889AE1E062E02A
:10121E0007C0899A889A03D08898F9DF899863E085
:10122E006A95F1F7089578E08898F1DF809BFECFFC
:10123E00EEDF889481990894889AF1DFEE1F7A95F3
:10124E0099F77A2F772311F4899801C0899ADFDFF5
:10125E008898E5DF889ADBDF8998D9CF78E0AA0FE6
:10126E0010F4899801C0899ADADF8898D0DF809BC4
:10127E00FECFCDDF889A7A9591F78998C8DF889846
:10128E00CEDFE1E08199EE27889AC1CF109639F032
:10129E00A8958AEF90E00197F1F71197C9F7089595
:1012AE000024AF0DB01D0895F195E195F04008951D
:1012BE00EA17FB07E1E009F0EE270895EA17FB07AE
:1012CE00E1E009F4EE270895FA9FF02DEB9FF00D63
:1012DE00EA9FE02DF10D08956E2F6A9FF0016B9F2E
:1012EE00F00D089504D0F0DF0EF4DEDF0895E894DB
:1012FE00F7FF02C0D9DF6894B7FF06C0A095B0957E
:10130E00119600F8039400FA0895ED91FC9111974F
:10131E0008950590F491E02D08957A936A93FA93C7
:10132E00EA9308955A934A933A932A931A930A93F7
:10133E0008955D814C813B812A8119810881089530
:00000001FF
